:1000000001308A00DD2900000A108A100A118207D7
:100010007334753462346934723400346234613458
:100020006A3461347234003470346134723461344F
:10003000723400346134633465346C346534723442
:10004000613472340034643465347334613463343D
:1000500065346C3465347234613472340034003485
:10006000D33AE2346537E4370A00C230EA306E3200
:100070006F050001C432F432EE34E4370A004E3426
:100080006F3420347034753465346434653420340E
:100090006134633465346C34653472346134723481
:1000A00020346D34E1347334203425346C346434BA
:1000B00020340A340034C131653665396137E4379C
:1000C000A0126C32200500004E346F34203470349E
:1000D0007534653464346534203464346534733481
:1000E0006134633465346C34653472346134723431
:1000F00020346D34E1347334203425346C3464346A
:1001000020340A340034C432E139E332EC32F230C4
:100110006E326F10253664100A000B08BB008B137B
:10012000831603178C170C140000000083120313AE
:10013000BB1B8B1703170C087F390319E328031324
:10014000BB0003170D080313BC0003170F080313AC
:10015000BD003B080C1EAA2899003C0803178D001F
:1001600003133D0803178F0003130B08BE008B1306
:10017000831603178C170C1400000000831203135E
:10018000BE1B8B1703170C0D0E0D7F390319E328C7
:100190000313BB0003170D080313BC0003170F085C
:1001A0000313BD003B080C1ED32899003C0803171D
:1001B0008D0003133D0803178F008D0A03198F0A62
:1001C00003138D280317031308000B08BC008B13BF
:1001D000831603178C170C140000000083120313FE
:1001E000BC1B8B1703170D080313BC0003170F0864
:1001F0000313BD0003170C0803130C1EFD28990000
:100200003C0803178D0003133D0803178F008D0A68
:1002100003198F0A0313BB0BE5280800C301040868
:10022000C2004310831B4314BC1F1E29C217421E69
:10023000C20ABB09BC09BB0A0319BC0A3C0EF03850
:10024000BE00BE07E23EBF00323EC1003C080F398F
:10025000BF07BF07C107E93EC000C007C0073B0E8C
:100260000F39C007C107C00DC10DC109C10D3B0841
:100270000F39C107BE0D0730BD000A30C107C003EA
:10028000031C3E29C007BF03031C4229BF07BE034E
:10029000031C4629BE07BD03031C4A293D308400C8
:1002A000831307304205421384034205031D5F296F
:1002B000421A840A421A5F292030F7007C298407F9
:1002C00041300402031942170008F700031D70298A
:1002D000421B7029421A8029C219702920307B29BB
:1002E000C21F78292D30F70084034213C2137C29E2
:1002F000C21542123030F70777080C1E7D2999008D
:10030000840A421F602908000B08BC008B13831667
:1003100003178C170C140000000083120313BC1B7E
:100320008B170318BC2903170C087F390313BC0073
:1003300003170D080313BD0003170F080313BE00B6
:100340003C080C1EA12999003D0803178D000313DA
:100350003E0803178F0003130B08BF008B1383168F
:1003600003178C170C140000000083120313BF1B2B
:100370008B17BB0BBC29DC2903170C0D0E0D7F3925
:100380000313BC0003170D080313BD0003170F0868
:100390000313BE003C080C1ECB2999003D0803172F
:1003A0008D0003133E0803178F008D0A03198F0A6F
:1003B00003100313BB0B8429080003081F398300B3
:1003C0000C3083169900A230980090308312980068
:1003D000B501FA30B400B7011430B600FF30B800F0
:1003E000BA01B90183161F149F141F159F110730FE
:1003F0009C0083138312A001A10183168113003096
:10040000F8000638831292007C3083169200831223
:100410003811380883168700831207110C309700B3
:10042000B810380883168700831287100C309D009F
:1004300095011708CF3997009B011D08CF399D0002
:1004400048300C1E212A990069300C1E252A99007B
:100450000A300C1E292A9900FE308316860083126A
:100460008618382AFE30831686008312061D402A1D
:1004700095011708CF3997009B011D08CF399D00C2
:10048000FE30831686008312861C4C2AFE308316AB
:10049000860083120614512AFE30831686008312CA
:1004A00006108C1EED2B2730840083138403840AEE
:1004B0008C1E582A1A0880000D300002031D572A8E
:1004C00080018C1E612A1A08A6002730840083133D
:1004D000BC01BB00BD01F80177143D080420FA00FF
:1004E000BD0A771C7B2A0002031D7B2A840AFA08B6
:1004F000031D6D2A8D2A7710FA08031D6D2AF80A4C
:1005000077143B08840083133C1883173D080420AC
:10051000003A031D6D2AFF30F800780803199D2A60
:10052000013A0319BE2A033A0319DE2A013A0319D4
:10053000F02A073A0319752BED2B0130B300950112
:100540001708CF3997003508F9003408F800F90C7E
:10055000F80CF90CF80CF90C78089B00F90C790CE4
:100560003039F7001D08CF3977049D00303003176C
:100570008D0000308F0003138D20ED2BB301350863
:10058000F9003408F800F90CF80CF90CF80CF90C27
:1005900078089500F90C790C3039F7001708CF3935
:1005A000770497009B011D08CF399D003530031754
:1005B0008D0000308F0003138D20ED2B0230B3002F
:1005C00095011708CF3997009B011D08CF399D0071
:1005D0003A3003178D0000308F0003138D20ED2B70
:1005E00036083407BB003508BC0037080318370F3E
:1005F000BC073C08003C0318212BFF3A031D042BC9
:100600003B08F33C0318212B0130B500F430B40053
:100610003F3003178D0000308F0016300313BB00EE
:10062000E520103084003508BC003408BB000E21E2
:1006300020300C1E192B99000A300C1E1D2B99001E
:10064000402B3608B40737080318370FB5075B305F
:1006500003178D0000308F0003100B300313BB0015
:100660008421103084003508BC003408BB000E2102
:1006700020300C1E392B99000A300C1E3D2B99009E
:10068000330B5A2B95011708CF3997003508F9001D
:100690003408F800F90CF80CF90CF80CF90C78088F
:1006A0009B00F90C790C3039F7001D08CF3977041D
:1006B0009D00742BB308031D742B3508F900340812
:1006C000F800F90CF80CF90CF80CF90C7808950006
:1006D000F90C790C3039F7001708CF3977049700F7
:1006E0009B011D08CF399D00ED2B35083702031CF7
:1006F0009A2B031D7F2B34083602031C9A2BB5015D
:10070000B401643003178D0000308F0019300313DB
:10071000BB00E520103084003508BC003408BB0065
:100720000E2120300C1E922B99000A300C1E962BA5
:100730009900B92B3608B4023708031C370FB502ED
:10074000833003178D0000308F0003100E30031329
:10075000BB008421103084003508BC003408BB0085
:100760000E2120300C1EB22B99000A300C1EB62B25
:100770009900330BD32B95011708CF399700350813
:10078000F9003408F800F90CF80CF90CF80CF90C25
:1007900078089B00F90C790C3039F7001D08CF3927
:1007A00077049D00ED2BB308031DED2B3508F900F0
:1007B0003408F800F90CF80CF90CF80CF90C78086E
:1007C0009500F90C790C3039F7001708CF39770408
:0E07D00097009B011D08CF399D002C2A630065
:02400E00723FFF
:00000001FF
;PIC16F877A
;CRC=D190  CREATED="18-sep.-23 16:02"
